:020000022000DC
:1070000000000420197202000172020003720200E3
:1070100005720200077202000972020000000000FF
:107020000000000000000000000000000B720200E1
:107030000D720200000000000F72020011720200C7
:107040001160030013720200B16D0300137202009D
:107050001372020013720200A96C03001372020083
:107060001372020013720200137202001372020004
:1070700013720200137202001372020013720200F4
:1070800013720200C1CA02001372020013720200DE
:1070900013720200137202001956030013720200E9
:1070A00013720200137202001372020013720200C4
:1070B00013720200137202000000000000000000C2
:1070C00013720200137202001372020013720200A4
:1070D0001372020013720200137202001372020094
:1070E000137202001372020013720200000000000B
:1070F0000000000013720200000000001372020082
:10710000000000000000000000000000000000007F
:10711000000000000000000000000000000000006F
:10712000000000000000000000000000000000005F
:10713000000000000000000000000000000000004F
:10714000000000000000000000000000000000003F
:10715000000000000000000000000000000000002F
:10716000000000000000000000000000000000001F
:10717000000000000000000000000000000000000F
:1071800000000000000000000000000000000000FF
:1071900000000000000000000000000000000000EF
:1071A00000000000000000000000000000000000DF
:1071B00000000000000000000000000000000000CF
:1071C00000000000000000000000000000000000BF
:1071D00000000000000000000000000000000000AF
:1071E000000000000000000000000000000000009F
:1071F000000000000000000000000000000000008F
:10720000FEE7FEE7FEE7FEE7FEE7FEE7FEE7FEE756
:10721000FEE7FEE700F002B8FFF7FCBF0F484FF0B3
:107220000701884385460E4880470E48016841F4AF
:1072300070010160BFF34F8FBFF36F8F00F01AB87A
:1072400009480A490A4A884207D0521A05D00378E9
:1072500001300B700131013AF9D170470000042070
:10726000F1CF030088ED00E0A0D6030070220020DB
:1072700084220020354936480A1A02D00722914359
:107280008D46344934480A1A06D00722914381F3C7
:107290000988022282F3148830483149314A00F0CB
:1072A00044F831483149324A00F03FF83148324918
:1072B000324A00F03AF832483249334A00F035F8A1
:1072C00032483349334A00F030F833483349344ABE
:1072D00000F02BF833483449344A00F026F834489B
:1072E0003449002200F02CF833483449002200F0E1
:1072F00027F833483349091A082902DB00220260C3
:107300004160314A90471F481F49884205D00268B2
:10731000043003B4904703BCF7E700208646EC46F0
:1073200000200021294A9047FEE7884207D0521AE0
:1073300005D0037801300B700131013AF9D1704763
:10734000884202D002700130FAE770470000042042
:1073500000E003200000042000000420BC12040010
:107360008422002018240020D0730200D073020071
:1073700020D50300BC1204008422002084220020B7
:10738000B4D60300B4D60300B4D60300B4D60300C9
:10739000B4D60300B4D60300B4D60300B4D60300B9
:1073A000BC120400501404001824002018240020EB
:1073B000182400208C3600208C3600208C360020CB
:1073C0008C3600208C560020417202004D0F0300C5
:1073D00084B003468DF807309DF807305B08DBB2B8
:1073E0001A460D4B9B5C8DF80F309DF8073003F06B
:1073F0000103002B04D09DF80F301B09DBB204E021
:107400009DF80F3003F00F03DBB28DF80E309DF8BE
:107410000E30184604B070473024002084B0034674
:107420000A468DF8073013468DF806309DF8073070
:1074300003F00103002B01D00F2300E0F0238DF8AF
:107440000F309DF8073003F00103002B04D09DF8A6
:1074500006301B01DBB201E09DF806308DF80E30DE
:107460009DF807305B08DBB21A46114B9A5C9DF819
:1074700007305B08DBB219469DF80F301340DAB2D3
:107480000B4B5A549DF807305B08DBB21A46084B89
:107490009A5C9DF807305B08DBB219469DF80E3008
:1074A0001343DAB2024B5A5400BF04B0704700BF16
:1074B0003024002000B585B003468DF80730002346
:1074C000039310E00F4B1A68039BDB0013440293F5
:1074D000029B1B789DF807209A4201D1029B0DE088
:1074E000039B01330393084B1B781A46039B93427B
:1074F000E8DB0649882009F0D9F80023184605B0D2
:107500005DF804FB182400201C240020C0D60300D2
:1075100000B585B003460A468DF8073013468DF84E
:1075200006309DF807301846FFF7C4FF0390039B11
:10753000002B0BD0039B5B68002B07D0039B5B6881
:107540009DF806109DF807201046984700BF05B02B
:107550005DF804FB2DE9F04F87B003460A468DF82D
:107560000F3013468DF80E309DF80F301846FFF798
:107570002FFF0346042B00F2C28001A252F823F031
:107580009575020009760200257602005576020004
:107590006B7602009DF80E30002B00F0AD809DF858
:1075A0000F3001211846FFF739FF00238DF81730FF
:1075B0000DF11703184600F08BFF9DF80F104FF0E8
:1075C00001024FF00003A1F12004C1F1200003FAF1
:1075D00001F702FA04F4274322FA00F0074302FA03
:1075E00001F6494BD3E9002346EA020100913B43EF
:1075F0000193454BDDE90012C3E900129DF81730F5
:10760000184600F07BFF77E09DF80E30002B01D08C
:10761000022200E000229DF80F3011461846FFF7C5
:10762000FDFE6CE09DF80E30002B0CD09DF80F3065
:1076300003211846FFF7F2FE9DF80F30012118468E
:10764000FFF766FF5BE09DF80F3001211846FFF75A
:10765000E5FE54E09DF80E30002B4FD19DF80F3021
:1076600004211846FFF7DAFE48E09DF80E30002BA3
:1076700006D09DF80F3003211846FFF7CFFE3EE0FD
:107680009DF80F3000211846FFF7C8FE9DF80F3017
:1076900000211846FFF73CFF00238DF816300DF14E
:1076A0001603184600F014FF9DF80F104FF001026A
:1076B0004FF00003A1F12006C1F1200003FA01F50B
:1076C00002FA06F6354322FA00F0054302FA01F405
:1076D0006FEA04086FEA05090B4BD3E9002308EAB7
:1076E000020A09EA030B084BC3E900AB9DF8163008
:1076F000184600F003FF02E000BF00E000BF00BF3B
:1077000007B0BDE8F08F00BF2824002000B583B08B
:107710000648074B1B685B080022194600F0B0FDC5
:10772000019000BF03B05DF804FB00BF8822002079
:107730002024002000B587B001900023059328E0A5
:107740001C4B1A68059BDB0013440493049B1B78B5
:1077500018460FF0F9F903468DF80F30049B5B785B
:10776000012B0CBF01230023DBB21A469DF80F301A
:107770009A420CBF012300238DF80E30049B1B7826
:107780009DF80E2011461846FFF7E4FE059B0133D5
:107790000593094B1B781A46059B9342D0DB074B98
:1077A000D3E90023134301D0FFF7B0FF00BF07B0B8
:1077B0005DF804FB182400201C240020282400204D
:1077C00000B585B001900B468DF80330019BDBB20C
:1077D0001846FFF76FFE0390039B1B7818460FF0C7
:1077E000B3F903468DF80B30039B5B78012B0CBF7C
:1077F00001230023DBB21A469DF80B309A420CBFDE
:10780000012300238DF80A309DF80A30002B06D0A2
:10781000054BD3E90023134301D1FFF777FF00BFE6
:1078200005B05DF804FB00BF2824002000B58BB034
:1078300003900B4601928DF80B30019B092B01D868
:10784000072367E00FF074F8034683F00103DBB20F
:10785000002B09D00FF008F80990099B0893089BAA
:10786000002B01D0089B55E02C4A039B13602C4A47
:107870009DF80B3013702B4A019B136020220021CE
:10788000294815F0EAFD29494FF000024FF00003A6
:10789000C1E9002331E09DF80B30DB00039A13446B
:1078A000079303238DF8143000238DF815309DF8CD
:1078B00016306FF300038DF816309DF816306FF315
:1078C00041038DF816309DF816306FF382038DF862
:1078D0001630079B9B788DF81530079B1B78184650
:1078E00005AB134A19460FF02FF80990099B069330
:1078F000069B002B01D0069B0CE09DF80B305A1E16
:107900008DF80B20002BC6D10A4A00210A4800F04E
:107910007DFC034618460BB05DF804FB18240020DC
:107920001C240020202400203024002028240020B3
:10793000C1770200357702000CD7030000B583B091
:10794000114B1B68002B04D1104940F2351008F090
:10795000ADFE002301930CE00B4B1A68019BDB008A
:1079600013441B78012118460FF06AF8019B01337C
:107970000193074B1B781A46019B9342ECD30023DB
:10798000184603B05DF804FB18240020C0D603009D
:107990001C24002086B003900291019201238DF8EF
:1079A00017309DF81730204A039B13601E4A029B34
:1079B00053601D4A019B9360039B44F20102934272
:1079C00012D0039B44F20202934220D1019B164A3B
:1079D000D360154BDB681B68134A9361124BDB685D
:1079E0005B68114AD36112E0019B0F4A13610E4B91
:1079F0001B699B680C4A53610B4B1B691B680A4A45
:107A00009361094B1B695B68074AD36100BF72B67B
:107A100000BF00BF9DF81730DBB2002BFAD162B671
:107A200000BF00BF06B070475024002000B583B0EF
:107A300002900091019244F2010071466A4600F002
:107A400003F803B000BD00BF30B58BB007900691BE
:107A5000059272B600BF0CF0F5FD00BF0CF0B0FB54
:107A60000346002BFAD1079B44F2020293422FD027
:107A7000079B44F20202934269D8079B44F2010239
:107A8000934237D0079B44F2010293425FD8079B91
:107A9000012B05D0079B41F2010293420CD056E026
:107AA000394A3A4BD31ADB081B0443F00103384927
:107AB00018460CF0FBFA57E0334A344BD31ADB0874
:107AC0001B0443F00103334918460CF0EFFA4BE076
:107AD000059B09932C4A2D4BD31ADB081B0443F05A
:107AE0000100099B5B681A46099B1B682A490CF038
:107AF000FCFA39E0059B0893234A244BD31ADB0890
:107B00001B0443F00104089B9D68089B9B68184672
:107B10000EF0B2F803461846089B5B681946089BAE
:107B20001B68069A02920193009103462A461B495C
:107B300020460CF01CFB144A144BD31ADB081B0420
:107B400043F00103164918460CF0B0FA0CE00E4A57
:107B50000E4BD31ADB081B0443F00103069A1149AC
:107B600018460CF0B1FA00BF0F4B1B6803F001037D
:107B7000002B00D000BE059A06990798FFF70AFF70
:107B800000BF0BB030BD00BFACD5030084D50300EF
:107B900010D7030030D7030054D7030070D7030079
:107BA00098D70300ACD70300F0ED00E02DE9F043D7
:107BB00083B0144804F069FF034600221C461546B2
:107BC000114BD3E9002314EB020845EB0309CDE97F
:107BD00000890E4BD3E90023DDE90001904271EBEF
:107BE000030307D2DDE9002312F1807643F1000799
:107BF000CDE90067DDE900231046194603B0BDE872
:107C0000F08300BFA82200207824002080240020D8
:107C100088B001900091019B0793009B0693079BFE
:107C2000D3E90223CDE90423069BD3E90223CDE95E
:107C30000223DDE90423DDE90201904271EB030335
:107C40002CBF01230023DBB2184608B070470000A8
:107C5000F0B585B00190019B5B69002B03D14349CE
:107C6000A52008F023FD00238DF80F30404B1B7832
:107C7000002B75D0019B002B72D0FFF797FF019B63
:107C8000D3E90223904271EB030358D300238DF80C
:107C90000D300DF10D03184600F01AFC019B1B6915
:107CA000002B06D101994FF0FF324FF0FF33C1E9AD
:107CB00002239DF80D30184600F020FC019B5B6903
:107CC000019A92691046984700238DF80C3003AB57
:107CD000184600F0FDFB019B1B69002B1AD0019B8D
:107CE000D3E90223B3F1FF3F08BFB2F1FF3F11D048
:107CF000019BD3E902230199096900200C4605463E
:107D0000161943EB0507019BC3E9026701238DF8B0
:107D10000E3002E000238DF80E309DF80C3018462E
:107D200000F0ECFB9DF80E30002B19D0019B19469A
:107D300010480DF0FBFE01238DF80F3010E0019B81
:107D4000D3E90223B3F1FF3F08BFB2F1FF3F07D0F1
:107D5000019B194607480DF0E9FE01238DF80F300D
:107D60009DF80F30184605B0F0BD00BFD0D7030016
:107D70007424002020D8030030B58BB0019000910E
:107D80000D230993009B00221A70019BD3E9022363
:107D9000CDE90623FFF70AFFDDE90623141A63EB9A
:107DA0000105CDE90445DDE90423012A73F100034F
:107DB00018DB049BB3F5350F05D300F00BFB02462F
:107DC000144B134400E0069B03934FF49603039A6D
:107DD0000021114804F04CFD0990099B002B05D1AE
:107DE000012314E000210C4804F01AFE099B0D2B1E
:107DF00007D10198FFF72CFF03461A46009B1A7023
:107E000004E006494FF4867008F050FC0023184641
:107E10000BB030BDFFFFB400A8220020D0D7030074
:107E200000B583B004480DF0BBFE0190019B1846DD
:107E300003B05DF804FB00BF20D8030000B583B099
:107E400004480DF0CFFE0190019B184603B05DF889
:107E500004FB00BF20D8030000B583B0FFF7E0FFAC
:107E60000190019B002B06D001994FF0FF324FF09B
:107E7000FF33C1E90223019B002BEFD100BF00BFFC
:107E800003B05DF804FB0000054BD3E9002312F1B9
:107E9000807043F10001024BC3E9000100BF70474D
:107EA0007824002010B582B00190124B1B68002B83
:107EB0001DD0019804F0E9FD04460021019804F06A
:107EC000D5FD03461946204600F078FA0346B3F57F
:107ED000960F04D3084940F2411008F0E7FB054B28
:107EE0001B681846FFF7B4FE024B00221A6000BF61
:107EF00002B010BD70240020D0D7030000B583B0BD
:107F00000190FFF753FE02460B460349C1E90023E7
:107F100000BF03B05DF804FB8024002000B587B0EB
:107F20000190FFF78BFF049000238DF81730049B1E
:107F3000002B58D0049BD3E90223B3F1FF3F08BFC5
:107F4000B2F1FF3F02D1FFF76BFF54E02E4B1B68ED
:107F5000002B03D101238DF817301DE0049BD3E9DA
:107F60000201294B1B68D3E90223904271EB030302
:107F700012D201238DF81730234B1B68D3E902235B
:107F8000B3F1FF3F08BFB2F1FF3F05D01E4B1B68A6
:107F900019461E480DF0CAFD9DF81730002B2BD056
:107FA000FFF73EFF04900DF10F0319460498FFF709
:107FB000E3FE0346002B12D0134B1B68002B02D1AB
:107FC000019804F061FB104A049B13609DF80F3088
:107FD00083F00103DBB2002BA3D000BF0FE00A4BFC
:107FE00000221A609DE7084B1B68002B06D1019800
:107FF00004F060FB02E094E700BF00E000BF00BFB8
:1080000007B05DF804FB00BF7024002020D80300F7
:1080100000B587B001902B4A03AB1946104609F012
:10802000E8F8049045E0049B1B78022B2BD0022B30
:108030002FDC002B02D0012B11D02AE0049B5B68BF
:10804000D3E90223B3F1FF3F08BFB2F1FF3F22D0D3
:10805000049B5B6819461C480DF068FD1BE0049BFF
:108060005A681A4B1B689A4203D1184B00221A60B7
:1080700012E0049B5B68194613480DF0C7FD0346E8
:108080008DF8173008E0FFF7E7FE114B01221A7058
:1080900002E000BF00E000BF0A4A03AB19461046E9
:1080A00009F0C0F8074A03AB1946104609F0A1F8D9
:1080B0000490049B002BB6D100BF00BF07B05DF851
:1080C00004FB00BFE024002020D80300702400201F
:1080D0007424002000B583B00190019804F093FC53
:1080E0000346002B01D0FFF7CFFE0021019804F0DA
:1080F000A8FC0346002B02D00198FFF7D3FE012114
:10810000019804F09EFC0346002B02D00198FFF773
:10811000F5FE0198FFF77CFF0198FFF7FFFE00BF17
:1081200003B05DF804FB000008B5024804F0BAFC97
:1081300000BF08BDA822002000B585B0034600910D
:108140008DF80730114A02AB1946104609F024F8A1
:108150000390039B002B13D0039B9DF807201A70FC
:10816000039B009A5A60094A02AB1946104609F06F
:108170002CF80346002B01D0FFF7D6FF002300E0C8
:108180000423184605B05DF804FB00BFE02400207E
:1081900000B583B0164B1B6800931648082358227D
:1081A000154908F0B2FF0190019B002B01D0019B03
:1081B00019E06B46114A1946114804F0E7F901909D
:1081C000019B002B01D0019B0DE001210C4804F024
:1081D00009FC01230B4A0121094804F081FA0A4BEA
:1081E00001221A70019B184603B05DF804FB00BF22
:1081F0001CD80300E024002088240020D580020041
:10820000A8220020FFFF7F007424002000B587B063
:1082100003900B4601928DF80B30039B002B04D189
:10822000164940F25A2008F041FA019B002B04D174
:10823000124940F25B2008F039FA019B002B01D172
:10824000072317E0039B1B68059305994FF0FF3246
:108250004FF0FF33C1E90223059B019A5A619DF853
:108260000B30012B0CBF01230023DBB21A46059B08
:108270001A610023184607B05DF804FBD0D703004D
:10828000F0B589B0039002910192039B002B04D1B9
:10829000264940F26B2008F009FA039B069300235D
:1082A0008DF817300DF11703184600F011F9069BF1
:1082B000D3E90223B3F1FF3F08BFB2F1FF3F11D171
:1082C000FFF774FC02460B46029900200C46054657
:1082D000161943EB0507069BC3E9026701238DF8D6
:1082E0001F3002E000238DF81F309DF8173018462C
:1082F00000F004F99DF81F3083F00103DBB2002B7E
:1083000001D000230EE0069B019A9A61069B1B692F
:10831000002B02D0069B029A1A6106990020FFF7F3
:108320000BFF0346184609B0F0BD00BFD0D70300CD
:1083300000B587B00190019B002B04D11E4940F28B
:10834000932008F0B3F9019B049300238DF80F30BC
:108350000DF10F03184600F0BBF8049BD3E902238C
:10836000B3F1FF3F08BFB2F1FF3F03D100238DF807
:10837000173009E004994FF0FF324FF0FF33C1E9A5
:10838000022301238DF817309DF80F30184600F0B6
:10839000B5F89DF8173083F00103DBB2002B01D054
:1083A000002304E004990120FFF7C6FE03461846A7
:1083B00007B05DF804FB00BFD0D7030082B0019086
:1083C0000091019A009BD31A23F07F43184602B014
:1083D0007047000008B5034804F057FB03461846F1
:1083E00008BD00BFA822002082B0EFF310830093E5
:1083F000009B019372B600BF019B184602B0704704
:1084000062B600BF00BF704700B585B00190FFF7AE
:10841000EBFF0390164B9B68002B1BD1144B0122E2
:108420009A60144BD3F88020134B1340104A13600A
:10843000104B114AC3F880200E4BD3F884300C4AFD
:1084400053600C4B4FF0FF32C3F88420019B002295
:108450001A7002E0019B01221A70039B002B01D1CC
:10846000FFF7CEFF0023184605B05DF804FB00BF00
:10847000F424002000E100E0FC06FFBD00B585B05B
:1084800003468DF80730104B9B68002B16D09DF8E3
:108490000730002B12D1FFF7A7FF03900B4A0A4BBE
:1084A0001B681360094A084B5B685360064B002247
:1084B0009A60039B002B01D1FFF7A2FF002318460F
:1084C00005B05DF804FB00BFF424002000E100E0EB
:1084D00000B583B0019000F02BF80346012B03D0C8
:1084E0000549432008F0E2F80198FFF78DFF00BF2F
:1084F00003B05DF804FB00BF2CD8030000B583B0C7
:1085000003468DF8073000F013F80346012B03D023
:108510000649512008F0CAF89DF807301846FFF7C1
:10852000ADFF00BF03B05DF804FB00BF2CD8030013
:1085300084B0EFF305830193019BC3F30803039316
:10854000039B002B0DD1EFF314830093009B029348
:10855000029B03F00103002B0CBF01230023DBB2BD
:1085600000E00123184604B070476DDF704700BF7C
:10857000184679DF704700BF18467DDF704700BF9F
:10858000184664DF704700BF184682B0034600916A
:10859000ADF80630BDF80630DAB2009B1A70BDF8AF
:1085A00006301B0A9AB2009B0133D2B21A70022322
:1085B000184602B0704700B589B003900291134687
:1085C000ADF80630029B1B8803F10902BDF80630A6
:1085D0009A4201D90C2353E004AB1846FFF7C5FFBC
:1085E0000790079B0693069B002B01D0069B47E054
:1085F000029B1B881A46039B134408221A70029B95
:108600001B8801339AB2029B1A80029B1B881A4670
:10861000039B13441B221A70029B1B8801339AB2DE
:10862000029B1A80029B1B881A46039B981804AB76
:1086300001330622194614F0E7FE029B1B8806331D
:108640009AB2029B1A809DF8103023F00103DBB22E
:10865000002B07D1029B1B881A46039B1344002260
:108660001A7006E0029B1B881A46039B13440122E2
:108670001A70029B1B8801339AB2029B1A80002356
:10868000184609B05DF804FB00B589B0039002916B
:108690000192ADF80230039B1B78012B05D1039B9F
:1086A0005B78002B01D1072392E0019B1B889A1C69
:1086B000BDF802309A420ED8039B1B78012B0CD1D7
:1086C000019B1B881A46039B5B7813449A1CBDF8D8
:1086D00002309A4201D90C237AE0019B1B88BDF835
:1086E0000220D31A9BB2023BADF81C30BDF81C30FF
:1086F000ADF81230019B1B880233029A13440DF12E
:10870000120211461846FFF738FF0690069B0593A4
:10871000059B002B01D0059B5AE0039B1B78022B85
:1087200006D0039B5B789AB2BDF812309A4209D307
:10873000BDF81230BDF81C209A4203D309238DF8EE
:108740001F3017E008238DF81F30039B1B78012B87
:108750000CD1039B5B789BB2BDF81C209A4205D3D9
:10876000039B5B789BB2ADF8123003E0BDF81C3080
:10877000ADF81230BDF81230FE2B01D90C2327E0E2
:10878000BDF81230DAB2019B1B881946029B0B44DC
:108790000132D2B21A70019B1B8801339AB2019B3D
:1087A0001A80019B1B881A46029B13449DF81F20C8
:1087B0001A70019B1B8801339AB2019B1A80019B9E
:1087C0001A88BDF8123013449AB2019B1A80002314
:1087D000184609B05DF804FB00B589B0039002911A
:1087E0001346ADF80630029B1B881A1DBDF80630F3
:1087F0009A4201D90C233BE00DF116031846FFF70E
:10880000B8FE0790079B0693069B002B01D0069BA2
:108810002EE0029B1B881A46039B134403221A7006
:10882000029B1B8801339AB2029B1A80029B1B8811
:108830001A46039B134419221A70029B1B880133AA
:108840009AB2029B1A80BDF81620029B1B8819461B
:10885000039B0B4419461046FFF797FE0346194643
:10886000029B1A888BB213449AB2029B1A8000238F
:10887000184609B05DF804FB84B0029101921A46D3
:1088800003468DF80F301346ADF80C30019B1B8862
:10889000DA1CBDF80C309A4201D90C2328E0019B68
:1088A0001B881A46029B134402221A70019B1B88E4
:1088B00001339AB2019B1A80019B1B881A46029BC6
:1088C000134401221A70019B1B8801339AB2019B49
:1088D0001A80019B1B881A46029B13449DF80F20A7
:1088E0001A70019B1B8801339AB2019B1A800023E6
:1088F000184604B0704784B0029101921A460346AC
:108900008DF80F301346ADF80C30019B1B88DA1C34
:10891000BDF80C309A4201D90C2328E0019B1B883A
:108920001A46029B134402221A70019B1B880133D2
:108930009AB2019B1A80019B1B881A46029B134422
:108940000A221A70019B1B8801339AB2019B1A807C
:10895000019B1B881A46029B13449DF80F201A7036
:10896000019B1B8801339AB2019B1A800023184691
:1089700004B0704700B58FB0039001930B468DF89B
:108980000B3013468DF80A3000238DF83330109BDE
:108990001B88ADF8303000230D9371E0039B5A68BB
:1089A0000D9B9B001A4405AB106818600DF11B016C
:1089B00005AB00221846FFF7E4FD0A900A9B0993D5
:1089C000099B002B01D0099B7CE09DF81B309DF892
:1089D0000A209A4251D19DF83330002B01D0002358
:1089E00000E002238DF82330109B1B881A469DF867
:1089F0001B301A449DF823301A44BDF844309A4283
:108A000001DD0C235EE09DF8333083F00103DBB21F
:108A1000002B16D0109B1B8801339AB2109B1A8032
:108A2000109B1B881A46019B13449DF80B201A705B
:108A3000109B1B8801339AB2109B1A8001238DF87A
:108A40003330109B1B881A46019B1A440DF11B0101
:108A500005AB1846FFF795FD0A900A9B0793079B05
:108A6000002B01D0079B2DE0109B1A889DF81B302E
:108A70009BB213449AB2109B1A800D9B01330D9345
:108A8000039B1B881A460D9B934287DB9DF833306E
:108A9000002B16D0109B1A88BDF83030D31A9BB229
:108AA000013BADF82E30BDF82E30FF2B01D90C2341
:108AB00008E0BDF83030019A1344BDF82E20D2B240
:108AC0001A70002318460FB05DF804FB00B58BB098
:108AD000059003930B468DF8133013468DF8123032
:108AE0009DF81310BDF8343001930C9B0093039B49
:108AF00002220598FFF73EFF0990099B0893089B07
:108B0000002B01D0089B14E09DF81210BDF8343002
:108B100001930C9B0093039B10220598FFF72AFFFB
:108B20000990099B0793079B002B01D0079B00E04E
:108B3000002318460BB05DF804FB82B00190019B46
:108B40001B88052B0AD9019B1B88B3F5486F07D9F1
:108B5000019B1B884FF6FF72934201D0072325E04B
:108B6000019B5B88052B0AD9019B5B88B3F5486F95
:108B700007D9019B5B884FF6FF72934201D0072310
:108B800014E0019B1B884FF6FF7293420DD0019BAE
:108B90005B884FF6FF72934207D0019B1A88019BB6
:108BA0005B889A4201D9072300E00023184602B0EF
:108BB000704700B587B0039002910192ADF8023082
:108BC000019B1B889A1DBDF802309A4201D90C23E3
:108BD0004DE00398FFF7B1FF0590059B0493049BBC
:108BE000002B01D0049B42E0019B1B881A46029B8C
:108BF000134405221A70019B1B8801339AB2019B12
:108C00001A80019B1B881A46029B134412221A7079
:108C1000019B1B8801339AB2019B1A80039B1A881F
:108C2000019B1B881946029B0B4419461046FFF70F
:108C3000ACFC03461946019B1A888BB213449AB2C6
:108C4000019B1A80039B5A88019B1B881946029B33
:108C50000B4419461046FFF798FC03461946019B42
:108C60001A888BB213449AB2019B1A8000231846CB
:108C700007B05DF804FB00B587B003900291019244
:108C8000ADF80230039B9B8802330593019B1B8840
:108C90001A46059B13449A1CBDF802309A4201D92A
:108CA0000C2354E0059BFE2B01D90C234FE0059BC0
:108CB000DAB2019B1B881946029B0B440132D2B2E7
:108CC0001A70019B1B8801339AB2019B1A80019B89
:108CD0001B881A46029B1344FF221A70019B1B88B3
:108CE00001339AB2019B1A80039B1A88019B1B884F
:108CF0001946029B0B4419461046FFF746FC0346F3
:108D00001946019B1A888BB213449AB2019B1A80B0
:108D1000039B9B88002B19D0039B9B68002B01D1E0
:108D2000072314E0019B1B881A46029B9818039B9B
:108D30009968039B9B881A4614F066FB019B1A886E
:108D4000039B9B8813449AB2019B1A800023184608
:108D500007B05DF804FB00B589B003900291019261
:108D6000ADF80230039B9B6A002B01D1072372E010
:108D700000238DF81F3066E0039B996A9DF81F2041
:108D800013465B0013449B000B440693069B9B8891
:108D900002330593059BFE2B01D90C235BE0059B59
:108DA000DAB2019B1B881946029B0B440132D2B2F6
:108DB0001A70019B1B8801339AB2019B1A80019B98
:108DC0001B881A46029B134416221A70019B1B88AB
:108DD00001339AB2019B1A80069B1A88019B1B885B
:108DE0001946029B0B4419461046FFF7CEFB03467B
:108DF0001946019B1A888BB213449AB2019B1A80C0
:108E0000069B9B88002B19D0069B9B68002B01D1E9
:108E1000072320E0019B1B881A46029B9818069B9B
:108E20009968069B9B881A4614F0EEFA019B1A88F3
:108E3000069B9B8813449AB2019B1A809DF81F30B1
:108E400001338DF81F30039B93F82C309DF81F20C1
:108E50009A4291D30023184609B05DF804FB00B58F
:108E600095B005900491039200231393039B1B88F4
:108E7000ADF84A30039B00221A80059B93F82D30F1
:108E8000002B0ED0BDF84A301A4603990498FFF71C
:108E900092FB1390139B1193119B002B01D0119BFC
:108EA000D8E0059B9B78002B0ED0BDF84A301A46BF
:108EB00003990498FFF790FC1390139B1093109B59
:108EC000002B01D0109BC5E0059BDB78002B10D058
:108ED000059BDB7858B2BDF84A30039A0499FFF736
:108EE000CBFC1390139B0F930F9B002B01D00F9B78
:108EF000B0E0059B5B68002B11D0059B5B6893F984
:108F00000000BDF84A30039A0499FFF7F4FC13906F
:108F1000139B0E930E9B002B01D00E9B9AE0059B9A
:108F20001B89002B14D0059B03F10800BDF84A30C3
:108F30000193039B0093049B06220221FFF7C6FDC9
:108F40001390139B0D930D9B002B01D00D9B81E083
:108F5000059B1B8A002B14D0059B03F11000BDF864
:108F60004A300193039B0093049B07220321FFF7E0
:108F7000ADFD1390139B0C930C9B002B01D00C9B0D
:108F800068E0059B1B8B002B14D0059B03F1180098
:108F9000BDF84A300193039B0093049B15221421D2
:108FA000FFF794FD1390139B0B930B9B002B01D0A9
:108FB0000B9B4FE0059B1B6A002B0FD0059B186A8B
:108FC000BDF84A30039A0499FFF7F3FD1390139B01
:108FD0000A930A9B002B01D00A9B3BE0059B5B6A2E
:108FE000002B0FD0059B586ABDF84A30039A0499AC
:108FF000FFF741FE1390139B0993099B002B01D0AF
:10900000099B27E0059B93F82C30002B0ED0BDF870
:109010004A30039A04990598FFF79DFE1390139B1D
:109020000893089B002B01D0089B13E0059B1B783D
:10903000002B0ED0BDF84A30039A04990598FFF72B
:1090400023FB1390139B0793079B002B01D0079BD7
:1090500000E0139B184615B05DF804FB86B0039042
:1090600001921A460B46ADF80A3013468DF80930C6
:10907000039B002B02D0019B002B01D100235CE05D
:109080000023ADF816300CE0BDF81630039A1344F7
:109090001B789AB2BDF8163013449BB20133ADF879
:1090A0001630BDF816305A1CBDF80A309A420FDA55
:1090B000019B1B88BDF816209A42E5D3BDF81630F7
:1090C0000133039A13441B789DF809209A42DBD19F
:1090D000BDF81620BDF80A309A4201D300232CE0D7
:1090E000BDF816300233ADF81430BDF81630039ACF
:1090F00013441B78002B08D0BDF81630039A134494
:109100001B789BB2013B9BB200E00023ADF812300C
:10911000BDF81230002B08D0BDF81420BDF8123075
:109120001A44BDF80A309A4201DD002305E0019B94
:10913000BDF814201A80BDF81230184606B07047EA
:1091400000B585B001900B46ADF8023013468DF89E
:1091500001300023ADF80C309DF8013003AABDF8B2
:1091600002100198FFF77AFF0346ADF80E30BDF804
:109170000E30002B01D1002304E0BDF80C301A465C
:10918000019B1344184605B05DF804FB72DF70477D
:1091900000BF184673DF704700BF184674DF704782
:1091A00000BF184682B00190019B93F830341846F6
:1091B00002B0704784B00190002303930AE0019A43
:1091C000039B13441B78002B01D0012306E0039B73
:1091D00001330393039B052BF1D90023184604B0F8
:1091E0007047000082B003468DF807309DF80730C5
:1091F0005A1C074B83FB02135910D317C91A0B468D
:109200009B000B44D11ACBB2184602B0704700BF86
:109210006766666682B001900091009BDB7B012B44
:1092200004D1009B9A88019BA3F8242400BF02B0BC
:10923000704700B585B001900091019B002283F832
:109240002E24009B9A88019BB3F824349A4216D1AD
:10925000019B1B7983F00103DBB2002B0FD00121AE
:10926000019800F0ABFA0390039B002B07D0019B01
:109270009B6B002B03D0019B9B6B0398984700BF0F
:1092800005B05DF804FB00B585B001900091009B2E
:109290001B88262B1ED1009B1B7A012B03D0009B21
:1092A0001B7A022B17D1019B9B781846FFF79AFF78
:1092B00003461946019800F081FA0390039B002BA6
:1092C00009D0019B9B6B002B05D0019B9B6B0398E6
:1092D000984700E000BF05B05DF804FB00B585B01D
:1092E00001900B468DF80330019B03F2274318468B
:1092F000FFF760FF03468DF80F309DF80330013B08
:10930000032B33D801A252F823F000BF1D930200B3
:10931000419302005593020061930200019B9B79E7
:10932000002B0DD0019B93F8243083F00103DBB2B6
:10933000002B05D09DF80F30002B01D0012316E043
:10934000019BDB79002B05D09DF80F30002B01D05D
:1093500002230CE0019B1B7A002B01D0032306E0C3
:10936000019B5B7A002B01D0042300E00023184608
:1093700005B05DF804FB00BF82B001900091019B35
:10938000012283F83120019B0022C3F82024019B95
:1093900003F22642009B5A60009B00229A60009BC9
:1093A00002221A70009B80229A810023184602B084
:1093B000704782B001900091019B022283F8312016
:1093C000019B93F82430002B03D0009B07221A70D6
:1093D00002E0009B03221A70019B1B699AB2009B5A
:1093E0009A81019B0022C3F82024019B03F22642AC
:1093F000009B5A60019BDA68009B9A600023184624
:1094000002B0704700B583B00190019B5B79002BDF
:109410000FD0019B93F82E3483F00103DBB2002BB5
:1094200007D00198FFF7BEFE0346002B01D00123B1
:1094300000E0002303F00103DBB2184603B05DF83F
:1094400004FB00B585B001900B468DF80330019BFD
:10945000D3F81004019BB3F8143401221946FFF726
:109460006FFE0390039B002B03D0039B9DF803200A
:109470001A70019B03F15400019B03F58261019B6B
:109480003C331A46FFF782FE0346184605B05DF8E6
:1094900004FB00B585B001900091019B5A69009BC7
:1094A0009A60019B9B699AB2009B9A81019B93F8F9
:1094B0002430002B04D0019B062283F83C2003E0DB
:1094C000019B012283F83C200198FFF79BFF034694
:1094D000002B13D0009B02221A7504210198FFF77C
:1094E000B0FF0390039B0293029B002B01D0029BD1
:1094F0000FE0019B052283F8312003E0019B03224A
:1095000083F83120019B03F58262019BC3F820247C
:109510000023184605B05DF804FB00B585B0019046
:109520000091019BDA69009B9A60019B1B6A9AB2C9
:10953000009B9A81019B93F82430002B04D0019B5F
:10954000062283F83C2003E0019B012283F83C20A3
:109550000198FFF757FF0346002B13D0009B022210
:109560001A7504210198FFF76CFF0390039B029387
:10957000029B002B01D0029B0FE0019B062283F887
:10958000312003E0019B042283F83120019B03F585
:109590008262019BC3F820240023184605B05DF8C1
:1095A00004FB82B00190019B9B78002B06D0019BAD
:1095B00093F82030002B01D0002300E0012318464F
:1095C00002B0704784B00190019B93F82430002BC7
:1095D00003D0EE23ADF80E3002E01F23ADF80E30BD
:1095E000BDF80E30184604B0704782B001900B46AB
:1095F0008DF80330019B9DF8032083F8302000BFD5
:1096000002B0704730B587B001900091009B002BED
:1096100002D0019B002B01D10E23B8E0009B7833D0
:109620001846FFF7BEFF034683F00103DBB2002BB1
:1096300001D00723ABE0019B00229A70019A009BA6
:10964000141D03F178050FCD0FC40FCD0FC495E89D
:10965000070084E80700019B002283F83020009B6C
:10966000D3F8A420019B5A63009BD3F8A820019B48
:109670009A63019B4FF6FF72A3F82424019B03F524
:109680008262019BC3F82024019B03F22643072238
:109690000021184613F0E1FE019B1B7883F00103C3
:1096A000DBB2002B03D0019BFF2283F85420019BE7
:1096B00003F15502019BC3F810240198FFF782FFC4
:1096C00003461A46019BA3F814240098019B03F15A
:1096D0005501019B03F214431A46FFF7C0FB0590A6
:1096E000059B0493049B002B01D0049B4FE0019B3E
:1096F00003F23122019BC3F818240198FFF762FF9F
:1097000003461A46019BA3F81C24009B03F13C006E
:10971000019BD3F81814019B03F21C431A46FFF770
:109720009EFB0590059B0393039B002B01D0039B9D
:109730002DE0019B012283F85120019B9B699AB285
:10974000019BA3F84820019B012283F83C20019B48
:1097500000221A64019B002283F85020019B5A6961
:10976000019B5A64019B03F15400019B3C331A4650
:109770000021FFF70BFD0590059B0293029B002B38
:1097800001D0029B03E0019B01221A70059B184641
:1097900007B030BD82B00190019B1B68012B07D040
:1097A000019B1B68022B03D0019B1B68042B01D17A
:1097B000012300E00023184602B0704700B585B0D1
:1097C00001900B468DF80330019B1B7883F0010359
:1097D000DBB2002B01D0082309E1019B9DF8032097
:1097E0009A70019B03F2264307220021184613F0CA
:1097F00034FE019B9B79002B03D0019B9B78012BAE
:109800000FD0019BDB79002B03D0019B9B78012BB0
:1098100007D0019BDB79002B14D0019B9B78022B96
:1098200010D1019B5B6B002B08D0019B012283F8B8
:109830002D24019B5B6B0820984703E0019B0022CD
:1098400083F82D249DF8033019460198FFF746FD53
:1098500003461A46019B9A70019B5B6B002B20D03C
:10986000019B9B78032B03D0019B9B78042B18D181
:10987000019B5B79002B14D0019B93F82E3483F06D
:109880000103DBB2002B0CD0019B002283F83024B3
:10989000019B012283F82F24019B5B6B07209847D3
:1098A00003E0019B002283F82F24019B3C33182204
:1098B0000021184613F0D1FD019B012283F83C20C2
:1098C000019B2C331846FFF765FF0346002B06D09B
:1098D000019BDB6ADAB2019B83F8512003E0019B14
:1098E000012283F85120019B93F82430002B12D0E1
:1098F000019B28331846FFF74DFF0346002B06D087
:10990000019B9B6ADAB2019B83F8522003E0019B22
:10991000012283F85220019B002283F85020019BF2
:109920009B78042B31D801A252F823F081990200D0
:109930004199020051990200619902007199020057
:10994000019B3C3319460198FFF716FD03901DE07B
:10995000019B3C3319460198FFF72BFD039015E05E
:10996000019B3C3319460198FFF793FD03900DE0EE
:10997000019B3C3319460198FFF7CFFD039005E0AA
:10998000019B002283F8312000E000BF019B9B78FF
:10999000002B20D0019B03F15400019BD3F820142D
:1099A000019B3C331A46FFF7F1FB0390039B002B0E
:1099B00001D0039B1BE0019B93F85420019B93F87B
:1099C000303019461046FFF7E5FB0390039B002B50
:1099D00001D0039B0BE0019B5B6B002B06D0019B2E
:1099E0005B6B019A92F83120104698470023184685
:1099F00005B05DF804FB00BF00B585B00190009193
:109A0000009B0393019B1B88262B10D0262B13DC75
:109A1000102B02D0112B05D00EE001990398FFF70F
:109A2000F9FB0AE001990398FFF703FC05E00199AF
:109A30000398FFF728FC00E000BF00BF05B05DF809
:109A400004FB00B585B00190019B93F85430184693
:109A5000FFF7A4FB019B012283F82E24019B002227
:109A600083F83024019B002283F8502006210198BE
:109A7000FFF7E7FC0390039B0293029B002B01D0AE
:109A8000029B12E0019B9B7819460198FFF796FE16
:109A90000390039B002B07D0019B9B6B002B03D0F3
:109AA000019B9B6B039898470023184605B05DF80F
:109AB00004FB30B482B001900091019B009A1C1D00
:109AC00015460FCD0FC40FCD0FC495E8070084E8ED
:109AD000070000BF02B030BC704775DF704700BFA1
:109AE000184676DF704700BF18467ADF704700BF20
:109AF00018467BDF704700BF1846000084B003465D
:109B0000ADF806300023039316E00F49039A13467D
:109B10009B0013449B000B441B88BDF806209A420F
:109B200007D1039A13469B0013449B00064A134433
:109B300006E0039B01330393039B002BE5D0002336
:109B4000184604B0704700BF2025002082B0019065
:109B50000B46ADF80230019BBDF802201A80019B34
:109B600000221A72019B054903F10A020B4603CB3E
:109B70001060516000BF02B0704700BF5025002048
:109B800082B00190019B4FF6FF721A8000BF02B0B5
:109B9000704788B00390029111461A460B46ADF803
:109BA00006301346ADF80430039B9B881A46BDF877
:109BB000063013440793039B9B881946039B9B889D
:109BC000BDF80620934228BF13469BB2CB1A0693DA
:109BD000039BDB881A46BDF8043013440593039BAE
:109BE000DB881946039BDB88BDF80420934228BF1D
:109BF00013469BB2CB1A0493029B5A88039B1B8883
:109C00009A4205D3029B5A88039B5B889A4201D9EA
:109C100000231CE0029B9B881A46069B934205D8B2
:109C2000029B9B881A46079B934201D200230EE0B9
:109C3000029BDB881A46049B934205D8029BDB8873
:109C40001A46059B934201D2002300E001231846E7
:109C500008B0704700B583B00190064B9B69002B9C
:109C600003D0044B9B690198984700BF03B05DF88F
:109C700004FB00BF3425002000B585B003460091E9
:109C8000ADF80630BDF8063000991846FFF725FFFD
:109C90000390039B002B05D0039B112B02D003984C
:109CA000FFF7D8FF039B002B0CBF01230023DBB27F
:109CB000184605B05DF804FB00B589B00190019B22
:109CC0000793079B9BB21846FFF718FF0690069B69
:109CD000002B42D0069B1A7A224B1B7B9A4215D24C
:109CE000079B9AB2069B0A3319461046FFF7C4FF3A
:109CF00003468DF813309DF81330002B2DD0069BB2
:109D00001B7A0133DAB2069B1A7226E0069B002208
:109D10001A72144B1B7C002B0FD0079B9BB23B216C
:109D20001846FFF7DEFE0590059B002B05D0059B2E
:109D3000082B02D00598FFF78DFF0A4B5B69002BBB
:109D40000BD000238DF80C30079B9BB2ADF80E3082
:109D5000044B5B6903AA1046984700BF09B05DF841
:109D600004FB00BF3425002030B587B00190019B73
:109D7000002B01D10E2353E02B4A019B14461D46B4
:109D80000FCD0FC495E8070084E80700264B274A4B
:109D90001A60019B1B68002B11D0019B1B681846A1
:109DA000FFF7A3FE0490049B002B01D0049B37E037
:109DB000019B1A681D4B1068516803C308E01B48DB
:109DC000FFF797FE0490049B002B01D0049B27E033
:109DD0000023059320E0059A13469B0013449B0043
:109DE000134A134403930398FFF7CAFE059B5B01D4
:109DF000104A1A44039B5A60039B04330E4A002105
:109E00001846FEF703FA0490049B002B01D00323AD
:109E100006E0059B01330593059B002BDBD0002357
:109E2000184607B030BD00BF342500205025002063
:109E30002025002000250020B99C020000B587B035
:109E400003460091ADF80630009B5B7A002B1AD1D7
:109E5000009B1B7A002B03D1164B5B68059302E035
:109E6000144B9B680593009B5B68BDF80620059921
:109E70001846FEF705FA0490049B002B16D00498B0
:109E8000FFF7E8FE12E0009B00221A72094B5B69A3
:109E9000002B0BD001238DF80C30BDF80630ADF847
:109EA0000E30044B5B6903AA1046984700BF07B009
:109EB0005DF804FB3425002000B585B00190019BBE
:109EC000DB7B8DF80F30019B9B88ADF80C309DF843
:109ED0000F30012B2CD14FF6FF70FFF70FFE0290D1
:109EE000029B002B03D10420FFF7B4FE21E0BDF854
:109EF0000C3019460298FFF729FE029B03F10A0075
:109F0000019B03F110014FF6FF7340F2F312FFF7CC
:109F100040FE03461A46029B5A72074BDB89002B10
:109F200007D1BDF80C3002991846FFF787FF00E013
:109F300000BF05B05DF804FB3425002000B587B0F4
:109F40000190019B9B88ADF81630BDF8163018467D
:109F5000FFF7D4FD0490049B002B0ED0049B5B689C
:109F60001846FEF7E5F90390039B002B02D00398F7
:109F7000FFF770FE0498FFF703FE00BF07B05DF81F
:109F800004FB000000B587B00190019B06330593E8
:109F9000059B1A88194BDB899A422BD1059B5B895B
:109FA000022B27D1019B9B88ADF81230BDF81230EF
:109FB0001846FFF7A3FD0390039B002B1AD0059BC7
:109FC0000C33184600F06AFF0346002B06D0BDF89C
:109FD000123003991846FFF731FF0BE0039B5B68D3
:109FE0001846FEF7A5F90290029B002B02D00298BA
:109FF000FFF730FE00BF07B05DF804FB34250020FA
:10A0000000B585B00190019B9B88ADF80E30BDF87E
:10A010000E301846FFF772FD0290029B002B15D000
:10A02000029B03F10A00019B03F108014FF6FF7345
:10A0300040F2F312FFF7ADFD03461A46029B5A7237
:10A04000BDF80E3002991846FFF7F8FE00BF05B0C4
:10A050005DF804FB00B583B001900091019B1B8863
:10A06000502B12D0502B18DC122B12D0122B14DCD8
:10A07000102B02D0112B04D00FE00198FFF71CFF2A
:10A080000CE00198FFF75AFF08E00198FFF77AFF0C
:10A0900004E00198FFF7B4FF00E000BF00BF03B089
:10A0A0005DF804FB30B58FB001900091002302935E
:10A0B000009B002B1AD000230D9314E06B460D99E2
:10A0C000184607F018F90346002B09D0029B5A1CCA
:10A0D00002920D9A92B25B0038336B4423F82C2C19
:10A0E0000D9B01330D930D9B132BE7D9019B1D464F
:10A0F00002AC0FCC0FC50FCC0FC594E8070085E864
:10A10000070001980FB030BD00B583B00346ADF82D
:10A110000630BDF80630132B01D900230CE0BDF842
:10A1200006301946064807F091F8BDF80630194682
:10A13000044807F08BF80123184603B05DF804FBD0
:10A14000602500205C25002000B585B00346ADF8F1
:10A150000630002303930DE0039B9B00094A134440
:10A160000433BDF806201146184607F0ABF8039BF0
:10A1700001330393039B1D2BEED900BF00BF05B035
:10A180005DF804FB5825002000B583B00346ADF808
:10A190000630BDF806301946034807F093F800BFB3
:10A1A00003B05DF804FB00BF6025002030B59BB014
:10A1B000184B9B68DB431893164B5A6818AB114633
:10A1C000184607F06EF9189A6B4611461846FFF7C5
:10A1D00069FF0DAC6D460FCD0FC40FCD0FC495E8D0
:10A1E000070084E80700002319930BE0199B5B002C
:10A1F00068336B4433F8303C1846FFF7A5FF199BD2
:10A20000013319930D9B199A9A42EFD300BF00BFF7
:10A210001BB030BD5825002000B583B003468DF833
:10A2200007309DF807301946034807F064F80346E5
:10A23000184603B05DF804FB5825002000B583B034
:10A2400001900B46ADF8023013468DF801309DF8B1
:10A250000130002B06D0BDF802301946019806F0F7
:10A26000F5FF05E0BDF802301946019807F02AF81D
:10A2700000BF03B05DF804FB00B585B0019000910C
:10A28000019B9B88ADF80E30019B1B88103B0A2B6D
:10A2900000F2888001A252F823F000BFC9A2020098
:10A2A00005A30200A5A30200A5A30200A5A3020026
:10A2B000A5A30200A5A30200A5A30200A5A3020076
:10A2C0006FA3020011A30200FFF770FFBDF80E306C
:10A2D0001846FFF719FF034683F00103DBB2002B9A
:10A2E00005D0324AF0210420FDF7A0FB57E0019B86
:10A2F000DB7B022B53D1BDF80E3019462C4806F0FB
:10A30000A5FF4CE0BDF80E301846FFF73DFF49E0D1
:10A31000019B1B7AC3F30313DBB28DF80D309DF85C
:10A320000D30032B8CBF01230023DAB2BDF80E30B1
:10A3300019462048FFF782FF9DF80D30022B8CBF95
:10A3400001230023DAB2BDF80E3019461A48FFF790
:10A3500075FF9DF80D30012B8CBF01230023DAB26D
:10A36000BDF80E3019461548FFF768FF1AE0019B4B
:10A370001B7A002B15D1019B5B7AC3F3C003DBB2C0
:10A38000002B14BF012300238DF80C309DF80C2006
:10A39000BDF80E3019460748FFF750FF01E000BF37
:10A3A00000E000BF00BF05B05DF804FB7CD80300EF
:10A3B00064250020702500206C25002068250020E1
:10A3C00000B583B00346ADF80630BDF80630132B58
:10A3D00001D9002306E0BDF806301946034806F00F
:10A3E0008AFF0346184603B05DF804FB5C25002095
:10A3F00000B585B00346ADF8063000238DF80F3068
:10A40000BDF806301846FFF7DBFF0346002B11D0DE
:10A41000BDF8063019460A4806F06DFF03468DF870
:10A420000E309DF80E30002B01D0022300E00123F6
:10A430008DF80F309DF80F30184605B05DF804FB1D
:10A440006425002000B585B00346ADF80630002332
:10A450008DF80F30BDF806301846FFF7B1FF034600
:10A46000002B11D0BDF8063019460A4806F043FF0C
:10A4700003468DF80E309DF80E30002B01D00223DC
:10A4800000E001238DF80F309DF80F30184605B01D
:10A490005DF804FB6025002000B583B00346ADF8ED
:10A4A0000630BDF806301846FFF78AFF0346002B3A
:10A4B00007D0BDF806301946044806F01CFF0346D5
:10A4C00000E00023184603B05DF804FB6825002077
:10A4D00000B583B00346ADF80630BDF80630184627
:10A4E000FFF76EFF0346002B07D0BDF80630194674
:10A4F000044806F000FF034600E00023184603B0BE
:10A500005DF804FB6C25002000B583B00346ADF870
:10A510000630BDF806301846FFF752FF0346002B01
:10A5200007D0BDF806301946044806F0E4FE03469D
:10A5300000E00023184603B05DF804FB70250020FE
:10A5400000B583B01821074806F0EDFE0190019B8D
:10A55000182B01D1182301E0019BDBB2184603B090
:10A560005DF804FB5825002000B583B003460A4679
:10A57000ADF8063013468DF805309DF805301846C5
:10A58000FFF74AFE0346002B16D0BDF806301846EA
:10A59000FFF716FF0346002B0ED09DF8053006335B
:10A5A0009B00084A13440433BDF8062011461846A0
:10A5B00006F0A1FE034600E00023184603B05DF854
:10A5C00004FB00BF5825002000B583B00346ADF85A
:10A5D00006300B468DF8053013468DF804309DF893
:10A5E00005301846FFF718FE0346002B15D0BDF8BE
:10A5F00006301846FFF7E4FE0346002B0DD09DF809
:10A60000053006339B00074A134404339DF80420A9
:10A61000BDF806101846FFF711FE00BF03B05DF845
:10A6200004FB00BF5825002000B587B003900291BD
:10A630000192029B002B01D100231FE00023059310
:10A64000039B002B19D00023049313E003AB049960
:10A65000184606F050FE0346002B08D0049B9AB221
:10A66000029B019910469847059B01330593049B73
:10A6700001330493049B132BE8D9059B184607B0BC
:10A680005DF804FB00B583B001900091054B9B6819
:10A69000009A01991846FFF7C7FF0346184603B012
:10A6A0005DF804FB5825002000B585B003460291F3
:10A6B00001928DF80F309DF80F301846FFF7ACFD72
:10A6C000034683F00103DBB2002B01D000230CE032
:10A6D0009DF80F30074A06339B0013445B68019ACC
:10A6E00002991846FFF7A0FF0346184605B05DF82B
:10A6F00004FB00BF58250020A8DF704700BF1846A4
:10A70000ADDF704700BF1846AEDF704700BF184688
:10A71000B0DF704700BF184662DF704700BF1846C1
:10A720003CDF704700BF18463DDF704700BF18464A
:10A7300082B003468DF8073000BF02B070470000BA
:10A7400000B58BB0019005AB10220021184612F025
:10A7500084FE02238DF814300223ADF80830002364
:10A76000ADF80A3004AB03931B4B9B881A4A5189FE
:10A7700002AA1846FFF7C4FF0990099B002B10D1CD
:10A7800004AB184600F0A0FB0346002B09D09DF84F
:10A790001A3043F001038DF81A300023ADF8183059
:10A7A00003E040F2FD13ADF818300B4B9B8805AA6F
:10A7B00011461846FFF7ACFF0990099B112BF4D006
:10A7C000BDF81830002B03D1019800F0D3FA00E057
:10A7D00000BF0BB05DF804FBD425002000B585B0A8
:10A7E0000190019B9A88134B9B889A421ED1019B32
:10A7F00006330393039B1B78022B18D1039B5A88C3
:10A800000C4BDB889A4212D1039B1B7A042B0ED08F
:10A81000039B1B7A062B0AD0039B1B7A052B06D0C1
:10A82000039B02331846FFF78BFF00E000BF05B023
:10A830005DF804FBD425002082B00190019B9A882A
:10A84000024B9A8000BF02B0704700BFD4250020A1
:10A8500082B00190064B9A88019B9B889A4204D152
:10A86000034B4FF6FF729A8000E000BF02B07047C2
:10A87000D425002000B585B00190019B06330393D9
:10A88000039B1A880A4BDB889A420DD1084B1B7E2A
:10A89000002B09D000F0DCFA0290029B002B03D0C1
:10A8A000034B5B690220984700BF05B05DF804FBCD
:10A8B000D425002000B583B001900091019B002BAE
:10A8C0001ED0019B1B88532B16D0532B1ADC512B07
:10A8D0000ED0512B16DC102B02D0112B04D011E01E
:10A8E0000198FFF7A9FF0EE00198FFF7B1FF0AE01A
:10A8F0000198FFF773FF06E00198FFF7BBFF02E046
:10A9000000BF00E000BF03B05DF804FB00B58BB0F2
:10A9100003460A468DF8073013468DF806300323A8
:10A92000ADF8223003AB10220021184612F095FD3D
:10A93000BDF82230ADF8203020238DF81C309DF872
:10A9400007308DF81D309DF806308DF81E30134B02
:10A95000DB88ADF80C3002238DF80E300023ADF803
:10A96000103008AB059307AB06930C4B9B8803AAEA
:10A9700011461846FFF7C8FE0990099B002B07D126
:10A98000BDF82030BDF822209A4201D00C23099353
:10A99000099B18460BB05DF804FB00BFD4250020CE
:10A9A00000B585B04FF0FF310020FFF7BDFE0390EA
:10A9B000039B0293029B002B01D0029B13E0B12169
:10A9C0000020FFF7ADFE0390039B0193019B002B3A
:10A9D00001D0019B07E0064B5B69012098470220EC
:10A9E0000AF020FB0023184605B05DF804FB00BF09
:10A9F000D425002010B58CB001902C4B02AC0FCBAD
:10AA000084E80F00019B002B01D10E234AE0284B64
:10AA10004FF6FF729A80019B1B68254A5361244BB5
:10AA200000221A76224B5B69002B02D1204B214A6F
:10AA30005A611F4800F0F2F80B900B9B0A930A9B97
:10AA4000002B01D00A9B2DE001238DF81A304FF620
:10AA50005963ADF8183006AB174A19460120FFF7C5
:10AA60004BFE0B900B9B0993099B002B01D0099B7C
:10AA700018E002AB0E491846FFF74EFE0B900B9BF9
:10AA80000893089B002B01D0089B0BE0084800F0BE
:10AA900035F90B900B9B0793079B002B01D0079B6D
:10AAA00000E0002318460CB010BD00BFCCD8030056
:10AAB000D425002031A70200D62500204FF0030C3A
:10AAC00000DF704700BF184600B583B001900198C1
:10AAD000FFF7F4FF0346184603B05DF804FB0000DF
:10AAE00008B50348FFF7F0FF0346184608BD00BF4E
:10AAF000F025002000B583B00190054B1B68054987
:10AB0000019898470346184603B05DF804FB00BF60
:10AB1000F0250020F825002000B583B00190054BFA
:10AB20005B680549019898470346184603B05DF8ED
:10AB300004FB00BFF0250020F8250020064B1B6811
:10AB4000002B05D0044B5B68002B01D0012300E0F3
:10AB500000231846704700BFF025002000B585B0DF
:10AB60000190134B1B685B7E002B01D006231AE07B
:10AB70000198FFF7BFFF0390039B002B04D10C4B00
:10AB80001B6801225A760DE0039B0F2B0AD1094A5C
:10AB9000094BD31ADB081B0443F00103074918468D
:10ABA00009F084FA039B184605B05DF804FB00BF6A
:10ABB000FC250020ACD5030084D50300DCD80300BD
:10ABC00000B583B0144B1B685B7E002B0ED00621B2
:10ABD0000120FFF79BFE0190019B002B04D00E4B40
:10ABE0001B685B6903209847002310E00A4B1B6831
:10ABF00001221A7601210120FFF788FE0190019BB6
:10AC0000002B03D0044B1B6800221A76019B1846C8
:10AC100003B05DF804FB00BFFC25002082B001906A
:10AC2000019B002B01D10E2303E0034A019B13601B
:10AC30000023184602B07047FC25002000B585B0FF
:10AC400007F0E8F90390039B0293029B002B01D0CD
:10AC5000029B0DE0FFF744FF0390039B0193019BD0
:10AC6000002B01D0019B03E007F026FA0390039B21
:10AC7000184605B05DF804FB00B585B00190009161
:10AC8000FFF75CFF0346002B32D00198FFF744FF2B
:10AC90000390039B082B2CD0039B002B11D1164B48
:10ACA0001B6800225A7601210220FFF72FFE039035
:10ACB000039B002B1DD0104B1B685B69032098473A
:10ACC00017E00D4B1B6800225A7606210220FFF781
:10ACD0001DFE0390039B002B04D0074B1B685B6990
:10ACE00003209847044B1B685B690220984700E0EB
:10ACF00000BF05B05DF804FBFC25002000B58BB05B
:10AD0000019002AB20220021184612F0A6FB03237B
:10AD1000ADF80830019B1B788DF80A309DF815308E
:10AD200043F020038DF815309DF8153043F00803EB
:10AD30008DF8153001238DF8183001238DF814306B
:10AD40001723ADF80C3001238DF81B3001238DF84B
:10AD50001A3001238DF81930019B5888019B9A1DE8
:10AD600002AB194600F038F9034618460BB05DF8FF
:10AD700004FB000000B585B0019004238DF80F306E
:10AD8000019B1B7B012B02D0022B11D035E0FFF77A
:10AD900017FF0290029B002B03D101238DF80F3087
:10ADA0002FE0029B112B2CD106238DF80F3028E0C9
:10ADB000019B5B7B142B03D8019B5B7B002B03D196
:10ADC00005238DF80F301EE0019B03F10E01019B5E
:10ADD0005B7B1A461B4812F017FB019B5B7B1A46F4
:10ADE000194B9A611848FFF7B9FE0290029B002B9D
:10ADF00009D101238DF80F3005E002238DF80F30C3
:10AE000002E000BF00E000BF9DF80F30012B15D01D
:10AE1000019B1B7B9DF80F2011461846FFF776FD1E
:10AE20000290029B002B04D0084B1B685B69032037
:10AE30009847064B1B685B690220984700BF05B026
:10AE40005DF804FB0426002000260020FC250020DD
:10AE500000B583B0064B1B685B6900209847FFF77D
:10AE60009FFD0190019B184603B05DF804FB00BFF5
:10AE7000FC25002082B00190019B1B781AB2019B37
:10AE800001331B781B021BB213431BB29BB2184643
:10AE900002B07047AADF704700BF184600B585B002
:10AEA00001900198FFF7E6FF0346ADF80E30BDF8BC
:10AEB0000E3003F00103002B14BF01230023DBB28B
:10AEC000184605B05DF804FB00B585B00190019807
:10AED000FFF7D0FF0346ADF80E30BDF80E3003F09B
:10AEE0000203002B14BF01230023DBB2184605B078
:10AEF0005DF804FB82B0034600918DF80730009A9C
:10AF000013786FF303031370009A13786FF307132A
:10AF100013709DF80730052B5BD801A252F823F07F
:10AF200039AF02004FAF020069AF020083AF0200E9
:10AF30009DAF0200B7AF0200009A13786FF30303CE
:10AF40001370009A13786FF30713137040E0009AA0
:10AF50001378012161F303031370009A1378012120
:10AF600061F30713137033E0009A1378012161F342
:10AF700003031370009A1378022161F3071313700F
:10AF800026E0009A1378012161F303031370009AFD
:10AF90001378032161F30713137019E0009A1378F3
:10AFA000022161F303031370009A1378012161F306
:10AFB000071313700CE0009A1378022161F3030366
:10AFC0001370009A1378022161F30713137000BF06
:10AFD00000BF00BF02B0704700B595B003460291B4
:10AFE0000192ADF80E30029B9B78002B03D1012318
:10AFF0008DF81E3003E0029B9B788DF81E30029B7B
:10B000001B88ADF81C3006AB03220021184612F055
:10B0100024FA029B5B7C06AA11461846FFF76AFFDA
:10B02000029B9A7C06AB013319461046FFF762FF7C
:10B03000029BDA7B9DF81A3062F3C3038DF81A3055
:10B04000029B1A7C9DF81A3062F304138DF81A30B3
:10B05000029B1A7B9DF81A3062F300038DF81A30B8
:10B06000029B1B7D002B01D0022200E001229DF8F3
:10B070001A3062F342038DF81A300DAB1C22002106
:10B08000184612F0EAF9029B5B7B03F01003DBB277
:10B09000002B06D1029B5B7B03F02003DBB2002B6D
:10B0A00024D004AB03220021184612F0D6F9029BEB
:10B0B000DA7C04AB013319461046FFF71BFF9DF8FD
:10B0C0001030012262F303038DF810309DF8103028
:10B0D000012262F307138DF810309DF8123001221F
:10B0E00062F342038DF8123004AB1293029B5B7B38
:10B0F0008DF83430029B9B7B8DF8353008AB1422E1
:10B100000021184612F0A9F907AB089306AB099382
:10B11000029B9B88ADF82C30029B9B68002B06D0CD
:10B12000029BDB88ADF82830029B9B680C93029B46
:10B130009B69002B4FD005AB03220021184612F06B
:10B140008CF9029B9B691B88ADF83C30029B9B6984
:10B150005B88ADF83E30029B9B695B680E9305AB44
:10B160001193029B9B691B7B05AA11461846FFF7AA
:10B17000C1FE029B9B695A7B05AB01331946104601
:10B18000FFF7B8FE029B9B699A7A9DF8163062F32E
:10B19000C3038DF81630029B9B69DA7A9DF816304E
:10B1A00062F304138DF81630029B9B691A7A9DF89E
:10B1B000163062F300038DF81630029B9B699B7B6F
:10B1C000002B01D0022200E001229DF8163062F32C
:10B1D00042038DF81630029BDB69002B02D0029BE4
:10B1E000DB69109308AA0DA9BDF80E00019BFFF7BB
:10B1F00051FE0346184615B05DF804FB00B583B058
:10B200000190019B1B68184600F01FF90346002BB4
:10B2100004D10B494FF4F67005F048FA019B1B6806
:10B220001F2B02D84FF0A04306E0019B1B6803F0E0
:10B230001F02019B1A60034B184603B05DF804FB24
:10B24000ACD903000003005000B585B0019008465A
:10B2500011461A4603468DF803300B468DF802302E
:10B2600013468DF8013001AB1846FFF7C7FF039076
:10B270009DF803209DF802305B001A439DF80130D1
:10B280009B001A439DF818301B0242EA03019DF807
:10B290001C301B04019A1943039B02F5E07243F82A
:10B2A000221000BF05B05DF804FB00B585B0039027
:10B2B000002301930023009300230122012103981E
:10B2C000FFF7C2FF00BF05B05DF804FB00B585B015
:10B2D00003900B468DF80B309DF80B300022019245
:10B2E00000220092002200210398FFF7ADFF00BF6B
:10B2F00005B05DF804FB00B585B0019001AB1846C0
:10B30000FFF77CFF0390019B012202FA03F3194629
:10B31000039800F086F800BF05B05DF804FB00B5A7
:10B3200085B0019001AB1846FFF768FF0390019BC1
:10B33000012202FA03F31946039800F07CF800BFDB
:10B3400005B05DF804FB00B585B0019001AB18466F
:10B35000FFF754FF0390039BD3F804350293029B3D
:10B36000DA43019B012101FA03F31A40039BC3F85E
:10B370000825019B01229A40029B1A40039BC3F8B7
:10B380000C2500BF05B05DF804FB00B583B001904B
:10B390000091009B002B03D10198FFF7C0FF02E052
:10B3A0000198FFF7A8FF00BF03B05DF804FB00B5EC
:10B3B00085B0019001AB1846FFF720FF039003987A
:10B3C00000F01FF80246019B22FA03F303F0010389
:10B3D000184605B05DF804FB00B585B0019001ABDF
:10B3E0001846FFF70BFF0390039800F012F802468F
:10B3F000019B22FA03F303F00103184605B05DF840
:10B4000004FB82B00190019BD3F81035184602B0BE
:10B41000704782B00190019BD3F80435184602B002
:10B42000704782B001900091019B009AC3F80825F3
:10B4300000BF02B0704782B001900091019B009A5A
:10B44000C3F80C2500BF02B0704784B00190019B87
:10B450005B09029300230393029B002B03D0029B02
:10B46000012B04D007E04FF0FF33039303E04FF6C6
:10B47000FF73039300BF019B03F01F030193039A23
:10B48000019B22FA03F303F00103002B14BF0123F5
:10B490000023DBB2184604B07047000000B585B049
:10B4A0000190019B032B03D911493A2005F0FEF8C6
:10B4B000104A019B13441B781846FFF78DFF034683
:10B4C000002B14BF012300238DF80F309DF80F309F
:10B4D000002B14BF01230023DBB283F00103DBB296
:10B4E00003F00103DBB2184605B05DF804FB00BFB2
:10B4F000D0D9030018DA030000B583B00190019B96
:10B50000032B03D90749412005F0D0F8064A019BD7
:10B5100013441B7800211846FFF737FF00BF03B024
:10B520005DF804FBD0D9030018DA030000B583B03E
:10B530000190019B032B03D90749472005F0B6F87A
:10B54000064A019B13441B7801211846FFF71DFF93
:10B5500000BF03B05DF804FBD0D9030018DA030084
:10B5600000B583B00023019305E00198FFF7DEFFEB
:10B57000019B01330193019B032BF6D900BF00BF50
:10B5800003B05DF804FB00B583B00023019305E030
:10B590000198FFF7B1FF019B01330193019B032B3E
:10B5A000F6D900BF00BF03B05DF804FB00B583B05F
:10B5B0000190019B032B03D907495F2005F076F822
:10B5C000064A019B13441B781846FFF7BCFE00BFD8
:10B5D00003B05DF804FB00BFD0D9030018DA030004
:10B5E00000B583B00023019309E0094A019B13448D
:10B5F0001B781846FFF759FE019B01330193019B0D
:10B60000032BF2D9FFF7ACFF00BF03B05DF804FBDA
:10B6100018DA030000B585B00190019B032B03D914
:10B620001149AC2005F042F8104A019B13441B78E5
:10B630001846FFF7BCFE0346002B14BF012300236E
:10B640008DF80F309DF80F30002B14BF012300231D
:10B65000DBB283F00103DBB203F00103DBB2184677
:10B6600005B05DF804FB00BFD0D903001CDA03006D
:10B6700000B583B0002301930AE0094A019B1344FB
:10B680001B7803211846FFF721FE019B013301932C
:10B69000019B032BF1D900BF00BF03B05DF804FB91
:10B6A0001CDA030084B001904FF0FF3302930023B3
:10B6B00003930DE00A4A039B13441B781A46019B2F
:10B6C000934202D1039B029305E0039B0133039352
:10B6D000039B032BEED9029B184604B0704700BFB2
:10B6E0001CDA030000B583B00190019B032B03D942
:10B6F0000549CB2004F0DAFF044A019B13441B7870
:10B70000184603B05DF804FBD0D903001CDA03002F
:10B7100000B583B00190019B03F00103002B01D021
:10B72000FFF75EFF019B03F00203002B01D0FFF740
:10B730009FFF00BF03B05DF804FB000000B583B0BD
:10B740000190019B1B68184600F04CF80346002B43
:10B7500004D10B494FF4F67004F0A8FF019B1B685D
:10B760001F2B02D84FF0A04306E0019B1B6803F09B
:10B770001F02019B1A60034B184603B05DF804FBDF
:10B7800020DA03000003005000B585B001900B469D
:10B790008DF8033001AB1846FFF7D0FF0390019AF4
:10B7A000039B02F5E07253F82230019A23F44031F2
:10B7B000039B02F5E07243F82210019A039B02F505
:10B7C000E07253F822309DF8032012041146019ACA
:10B7D0001943039B02F5E07243F8221000BF05B045
:10B7E0005DF804FB84B00190019B5B090293002388
:10B7F0000393029B002B03D0029B012B04D007E094
:10B800004FF0FF33039303E04FF6FF73039300BF42
:10B81000019B03F01F030193039A019B22FA03F398
:10B8200003F00103002B14BF01230023DBB21846F1
:10B8300004B0704700B583B00190019B032B04D87E
:10B840000198FFF7E7FE034600E00023184603B027
:10B850005DF804FB00B587B003460A468DF8073053
:10B8600013468DF8063000238DF81730002304931B
:10B870009DF807301846FFF715FF0490049B032B33
:10B8800061D89DF80630022B52D0022B5EDC002BD3
:10B8900031D0012B5AD13649049A13465B00134428
:10B8A0000B441B788DF817303149049A13465B001E
:10B8B00013440B4401331B78002B0ED02D4B2E4A22
:10B8C0004FF480411846FCF7DBFC0390039B002BF0
:10B8D00003D1294A9DF8073013702549049A13466D
:10B8E0005B0013440B4402331978244A049B13442D
:10B8F0000A461A702AE01F4B1846FCF719FD1F4A2A
:10B90000049B134419781A48049A13465B001344A5
:10B91000034402331B78994217D11549049A134600
:10B920005B0013440B4402331B788DF817300CE096
:10B930000F49049A13465B0013440B4401331B78F0
:10B940008DF8173002E000BF00E000BF9DF817300F
:10B95000002B09D00A4B1B68002B05D0084B1B6835
:10B960009DF817201046984700BF07B05DF804FB0C
:10B970002C260020F0220020382600203C26002023
:10B980002826002000B583B00190019B1B7802217E
:10B990001846FFF75FFF00BF03B05DF804FB00002F
:10B9A00000B583B00C4B1B78002B0FD00023019304
:10B9B00008E0019B022B02D00198FFF7B7FD019B25
:10B9C00001330193019B032BF3D901E0FFF7C8FD7D
:10B9D00000BF03B05DF804FB242600202DE9D04F02
:10B9E00092B003468DF83F3000231193002310934B
:10B9F000CC4B1B78002B04D0CA4A00231370FFF7EE
:10BA0000CFFF9DF83F30172B00F23F8201A252F882
:10BA100023F000BF75BA02008DBA02008DBA020091
:10BA200029BB0200C5BB020041BC0200D5BC02001C
:10BA3000F5BC020005BD020031BD02004FBD020091
:10BA40006DBD02008BBD020099BD020099BD0200D0
:10BA500099BD020099BD020099BD02002DBE0200F1
:10BA60003BBE02004FBE020063BE02007DBE02006C
:10BA70007DBE0200FFF794FFAB4B1846FCF758FC65
:10BA80001190AA4A9DF83F301370FFE10020FFF7A4
:10BA900005FD0346002B0DD00020FFF747FD9DF864
:10BAA0003F30022B02D14FF4E16301E04FF47A639F
:10BAB00010930BE00020FFF71FFD9DF83F30022B95
:10BAC00001D1C82301E04FF4C8731093974A9DF841
:10BAD0003F301370944C109B0022009301924FF062
:10BAE00000024FF00003DDE900673946CB03314621
:10BAF00043EA51433146CA0312F57A71029143F188
:10BB0000000303934FF4FA624FF00003DDE90201F2
:10BB100011F082FB02460B461346002219462046CE
:10BB2000FCF7AEFB1190B1E10020FFF7B7FC034634
:10BB3000002B0DD00020FFF7F9FC9DF83F30032BC0
:10BB400002D14FF4487301E04FF47A6310930BE095
:10BB50000020FFF7D1FC9DF83F30032B01D1C82313
:10BB600001E04FF4C8731093704A9DF83F30137092
:10BB70006D4C109B0022049305924FF000024FF091
:10BB80000003DDE904673946CB03314643EA5143FC
:10BB90003146CA0312F57A71069143F10003079307
:10BBA0004FF4FA624FF00003DDE9060111F034FBB7
:10BBB00002460B461346002219462046FCF760FB5E
:10BBC000119063E10020FFF769FC0346002B06D0CB
:10BBD0000020FFF7ABFC4FF47A63109305E00020E0
:10BBE000FFF78AFC4FF4C8731093504A9DF83F301A
:10BBF00013704D4C109B00229A4693464FF0000262
:10BC00004FF000034FEACB3343EA5A434FEACA32BC
:10BC100012F57A71089143F1000309934FF4FA6227
:10BC20004FF00003DDE9080111F0F6FA02460B4679
:10BC30001346002219462046FCF722FB119025E10D
:10BC40000020FFF72BFC0346002B0CD00020FFF751
:10BC50006DFC9DF83F30052B01D1C82301E04FF466
:10BC60007A6310930BE00020FFF746FC9DF83F300D
:10BC7000052B01D1C82301E04FF4C87310932B4A60
:10BC80009DF83F301370284C109B00229846914637
:10BC90004FF000024FF000034FEAC93343EA584324
:10BCA0004FEAC83212F57A710A9143F100030B93FF
:10BCB0004FF4FA624FF00003DDE90A0111F0ACFA2B
:10BCC00002460B461346002219462046FCF7D8FAD6
:10BCD0001190DBE00020FFF769FC144A9DF83F302B
:10BCE0001370114B002240F266611846FCF7C8FA47
:10BCF0001190CBE00020FFF7FFFB0C4A9DF83F308E
:10BD00001370C3E0074B01221A700120FFF74EFCAD
:10BD1000054B002240F266611846FCF7B1FA11901B
:10BD2000B4E000BF1D260020B02200201C26002009
:10BD3000594B01221A700120FFF738FC574B0022A3
:10BD40004FF400511846FCF79BFA11909EE0524BBD
:10BD500001221A700120FFF729FC504B002240F20B
:10BD600066611846FCF78CFA11908FE04A4B01226D
:10BD70001A700120FFF71AFC484B00224FF40051C3
:10BD80001846FCF77DFA119080E0FFF7FCFB444A6F
:10BD90009DF83F30137079E0424B1846FCF7C8FA23
:10BDA00011909DF83F30C3F111031093109B002BAD
:10BDB00035D0119B002B32D1109B012B28D9394C47
:10BDC000109B9BB21A46C82302FB03F3DA171E46E8
:10BDD00017464FF000024FF00003FB0343EA5643BF
:10BDE000F20312F57A710C9143F100030D934FF4B5
:10BDF000FA624FF00003DDE90C0111F00DFA024682
:10BE00000B461346002219462046FCF739FA1190DA
:10BE10000220FFF771FB244B01221A7036E002204A
:10BE2000FFF784FB204B00221A702FE0FFF7B8FDCC
:10BE30001B4A9DF83F30137028E0FFF7B1FD00204A
:10BE4000FFF75AFB164A9DF83F3013701EE0FFF7CC
:10BE5000A7FD0120FFF750FB114A9DF83F301370FA
:10BE600014E0FFF79DFD0020FFF746FB0120FFF7E0
:10BE700043FB0B4A9DF83F30137007E0FFF783FB4D
:10BE8000074A9DF83F30137000E000BF119B184631
:10BE900012B0BDE8D08F00BF1D260020B0220020C8
:10BEA0001C260020D02200202426002000B583B0CC
:10BEB0000190074B1B6803F00103002B04D0054BD6
:10BEC0001B781846FFF78AFD00BF03B05DF804FB3E
:10BED000202600201C26002000B583B001900220FF
:10BEE000FFF764FB00BF03B05DF804FB00B585B04D
:10BEF00003468DF8073000230393084B1B6803F0BB
:10BF00000103002B05D09DF807301846FFF766FDAA
:10BF10000390039B184605B05DF804FB2026002023
:10BF200000B585B001900091002303932A4A019B3C
:10BF300013602A4A009B1360019B03F00203002B4D
:10BF40002AD00023029308E001220121029800F088
:10BF500055F80390029B01330293029B032B02D8F6
:10BF6000039B002BF0D0039B002B06D140F2333211
:10BF700004211B48FBF75AFC0390039B002B02D1C2
:10BF8000FBF7DCFC0390039B002B05D1154A002135
:10BF90001548FCF73BF90390019B03F00103002BCC
:10BFA00014D00120FFF7B4FB039B002B05D10F4AEF
:10BFB00000210F48FCF72AF90390039B002B05D1C1
:10BFC0000C4A01210C48FCF721F90390039B184609
:10BFD00005B05DF804FB00BF2026002028260020C5
:10BFE00050DA030085B902004CDA0300ADBE02004E
:10BFF00044DA0300D9BE020048DA030084B001909D
:10C000000B468DF8033013468DF80230002303935E
:10C01000019B032B3CD89DF80230012B0BD19DF8DE
:10C020000330012B04D1019BDBB20E33DBB200E005
:10C0300000238DF802309DF80330022B0FD0022B25
:10C0400023DC002B16D0012B1FD11449019A134673
:10C050005B0013440B449DF802201A701AE00F494C
:10C06000019A13465B0013440B4401339DF80220F0
:10C070001A700FE00949019A13465B0013440B4400
:10C0800002339DF802201A7004E00723039301E0B5
:10C0900007230393039B184604B070472C26002007
:10C0A00000B585B001900B468DF80330019B032B42
:10C0B00014D89DF80330002B01D0032300E00023A7
:10C0C0008DF80F300198FFF70DFB02469DF80F30F9
:10C0D00019461046FFF758FB002300E006231846D8
:10C0E00005B05DF804FB00B583B001900121019813
:10C0F000FFF7D6FF0346184603B05DF804FB00B512
:10C1000083B0012200210020FFF778FF0190019BFE
:10C11000002B04D0019B072B01D0019B1CE00722C0
:10C1200002210120FFF76AFF0190019B002B04D040
:10C13000019B072B01D0019B0EE00422022100206D
:10C14000FFF75CFF0190019B002B04D0019B072BA4
:10C1500001D0019B00E00023184603B05DF804FB0A
:10C1600000B583B0012202210020FFF747FF0190B4
:10C17000019B002B04D0019B072B01D0019B1CE0ED
:10C18000072202210120FFF739FF0190019B002BBC
:10C1900004D0019B072B01D0019B0EE00A22002155
:10C1A0000020FFF72BFF0190019B002B04D0019B87
:10C1B000072B01D0019B00E00023184603B05DF877
:10C1C00004FB00B583B001900120FFF733FB034669
:10C1D000002B03D0019B02221A700CE00020FFF715
:10C1E00029FB0346002B03D0019B0B221A7002E0AF
:10C1F000019B00221A7000BF03B05DF804FB00B57C
:10C2000083B00020FFF76FFF0190019B002B04D04B
:10C21000019B062B01D0019B0CE00120FFF763FF7F
:10C220000190019B002B04D0019B062B01D0019BA8
:10C2300000E00023184603B05DF804FB00B585B0AC
:10C2400001900091019B1B88102B02D0112B18D05C
:10C250002FE01A4B1B68002B0DD1FFF750FF039006
:10C26000039B002B07D0164B1B68002B03D0144BED
:10C270001B6803989847114B1B6801330F4A1360E2
:10C2800017E00E4B1B68013B0C4A13600B4B1B68FD
:10C29000002B0DD1FFF764FF0390039B002B07D009
:10C2A000074B1B68002B03D0054B1B68039898476E
:10C2B00000BF00BF05B05DF804FB00BF44260020AE
:10C2C0004026002000B585B0019000910023039323
:10C2D0000A4A019B1360009B002B02D00098FFF7D5
:10C2E00070FF074B1B68002B02D1FFF739FF03904B
:10C2F000039B184605B05DF804FB00BF40260020F4
:10C300004426002082B003468DF807309DF907309F
:10C31000002B0CDB9DF8073003F01F0205499DF947
:10C3200007305B09012000FA02F241F8232000BF28
:10C3300002B0704700E100E082B003468DF807309C
:10C340009DF90730002B0DDB9DF8073003F01F022D
:10C3500006499DF907305B09012000FA02F24033DB
:10C3600041F8232000BF02B0704700BF00E100E0A9
:10C3700082B0034600918DF807309DF90730002BFD
:10C380000ADB009BDAB20C499DF907305201D2B2A8
:10C390000B4483F800230BE0009BDAB207499DF8B9
:10C3A000073003F00F03043B5201D2B20B441A765C
:10C3B00000BF02B0704700BF00E100E000ED00E008
:10C3C00000B583B003460A468DF8073013468DF852
:10C3D00006309DF80630012B03D99DF80630032B5B
:10C3E0000BD99DF80630042B03D99DF80630072B96
:10C3F00003D908496B2004F059F99DF806209DF9EE
:10C40000073011461846FFF7B3FF00BF03B05DF8D1
:10C4100004FB00BF70DA030000B583B003468DF85B
:10C4200007309DF907301846FFF76CFF00BF03B0D7
:10C430005DF804FB00B585B00190019B002B0AD08C
:10C44000074B43F001030393019B9B010293039B62
:10C450000298984700E000BF05B05DF804FB00BFFC
:10C4600050DB030084B0039002910192039B029A77
:10C4700002F5A872019943F8221000BF04B070477A
:10C4800082B001900091019B009A02F5A87253F8C6
:10C490002230184602B0704782B001900091019B93
:10C4A000009AC3F8042300BF02B0704782B0019025
:10C4B0000091019B009AC3F8082300BF02B07047A7
:10C4C00082B001900B46ADF80230BDF80230019AFF
:10C4D00013441B68184602B0704784B001900B46A5
:10C4E000ADF80230BDF80230019A134400221A6000
:10C4F000BDF80230019A13441B680393039B00BFED
:10C5000004B0704782B00190019BD3F804351846FF
:10C5100002B0704700B583B001900091009BB3F565
:10C52000805F04D306494FF4BE7004F0BFF8019B4E
:10C53000009AC3F8082500BF03B05DF804FB00BFF4
:10C5400094DA030082B001900B468DF803309DF819
:10C550000320019B13441A460123136000BF02B05D
:10C56000704782B001900091019B009AC3F8442368
:10C5700000BF02B0704782B001900091019B009A09
:10C58000C3F8482300BF02B07047000000B587B071
:10C59000039002910192039B002B03D13349552054
:10C5A00004F084F8029B002B03D13049562004F09C
:10C5B0007DF8019B002B03D12C49572004F076F81D
:10C5C000039B5B7919462A4A019B42F82130039B61
:10C5D0005B79284ADB0013441B79002B0ED008231B
:10C5E0000593254A254BD31ADB081B0443F00203AD
:10C5F0002349184607F05AFD059B32E0039B1A6851
:10C60000029B1B8819461046FFF784FF039B93F992
:10C610000420029B9B7819461046FFF7D1FE039B2E
:10C6200093F904301846FFF7F7FE039B5B79114A34
:10C63000DB00134401221A71039B5B7919460D4AF2
:10C64000039B42F83130002305930B4A0B4BD31A5E
:10C65000DB081B0443F003030A49184607F026FDD4
:10C66000059B184607B05DF804FB00BFB8DA03006D
:10C67000482600204C260020BCD5030084D50300AA
:10C6800000DB030024DB030000B583B00190019BB5
:10C69000002B03D10649872004F008F8019B1B6892
:10C6A00000211846FFF74EFF00BF03B05DF804FB02
:10C6B000B8DA030000B583B00190019B002B03D1D1
:10C6C00006498D2003F0F2FF019B1B6804211846E8
:10C6D000FFF738FF00BF03B05DF804FBB8DA0300D2
:10C6E00000B587B00390029101928DF80330039B4F
:10C6F000002B03D12149962003F0D8FF4FF480325C
:10C70000029B02FA03F30593029B50339BB29B00FA
:10C71000ADF81230019B23F07F430193039B1B680C
:10C7200005991846FFF7C2FE039B1B68059918463A
:10C73000FFF721FF039B1B68BDF812201146184626
:10C74000FFF7CBFE039B1B68019A02991846FFF77F
:10C7500089FE039B1B6805991846FFF702FF9DF8A9
:10C760000330002B05D0039B1B6805991846FFF783
:10C7700093FE00BF07B05DF804FB00BFB8DA03000A
:10C7800000B585B00390029113468DF80730039BE6
:10C79000002B03D10B49A92003F088FF039B1B68E2
:10C7A00002991846FFF7DDFE9DF80730002B05D0F3
:10C7B000039B1B6802991846FFF76EFE00BF05B089
:10C7C0005DF804FBB8DA030000B583B00190009176
:10C7D000019B002B03D10A49B32003F067FF019BA3
:10C7E0001B6800991846FFF7C6FE019B1B6800995D
:10C7F0001846FFF75BFE00BF03B05DF804FB00BF07
:10C80000B8DA030000B583B001900B46ADF80230F2
:10C81000019B002B03D10F49BA2003F047FF019B76
:10C820001B68BDF8022011461846FFF749FE034673
:10C83000002B09D0019B1B68BDF802201146184649
:10C84000FFF74BFE012300E00023184603B05DF81C
:10C8500004FB00BFB8DA030082B001900091019A96
:10C86000009BD31A23F07F43184602B070470000A4
:10C8700000B58BB00390029101920093039B002BB3
:10C8800003D15749CD2003F011FF4FF48032029BB2
:10C8900002FA03F30993029B50339BB29B00ADF85D
:10C8A0002230019B23F07F43019309990398FFF7FE
:10C8B0008BFF039B1B681846FFF724FE0790039B22
:10C8C0001B6802991846FFF7DBFD0690039B1B6867
:10C8D000079A02991846FFF7C5FD039B1B68BDF830
:10C8E000222011461846FFF7F8FD07990698FFF732
:10C8F000B3FF0346012B0AD11020FFF79BFD039BDA
:10C900001B68BDF8222011461846FFF7E6FD039B81
:10C910001B681846FFF7F6FD079007990198FFF787
:10C920009BFF0590039B1B6809991846FFF719FEAA
:10C93000059B012B15D1039B1868019B01331A46F7
:10C940000299FFF78FFD1020FFF774FD039B1B6812
:10C950001846FFF7D7FD0246079B934235D00D23BB
:10C9600039E0039B1B68019A02991846FFF77AFD8C
:10C97000039B1B681846FFF7C5FD0790019B013B11
:10C9800007991846FFF768FF0590009BC3F1FF1356
:10C9900003F57F43059A9A4201D90D231BE0059BBD
:10C9A000002B12D1039B1868019B01331A46029990
:10C9B000FFF758FD039B1B681846FFF7A3FD0246CF
:10C9C000079B934201D00D2305E0012209990398AA
:10C9D000FFF7D6FE002318460BB05DF804FB00BF3E
:10C9E000B8DA030000B583B001900B468DF8033030
:10C9F0009DF803301A4602210198FFF7C1FE00BFDF
:10CA000003B05DF804FB00B583B001904FF4827170
:10CA10000198FFF7F7FE0346184603B05DF804FBE4
:10CA200000B583B0019000914FF48032009B02FA70
:10CA300003F319460198FFF7C7FE00BF03B05DF886
:10CA400004FB00B585B001900091009B50339BB270
:10CA50009B00ADF80E30BDF80E3019460198FFF777
:10CA6000D1FE0346184605B05DF804FB00B583B05F
:10CA700001900091019B1B6800991846FFF700FD8B
:10CA80000346184603B05DF804FB00B583B001907F
:10CA9000019B1B681846FFF735FD0346184603B097
:10CAA0005DF804FB00B583B00190019B93F904305D
:10CAB0001846FFF741FC00BF03B05DF804FB00001F
:10CAC00008B5044B1B68044A12681046984700BF1B
:10CAD00008BD00BF482600204C26002082B00190EF
